:040472007580FF2270
:1002C000EFB4080050369002CDF82828730202E5FA
:1002D0000202E80202EB0202EE0202F10202F40262
:1002E00002F70202FAC29022C29122C29222C29363
:0D02F00022C29422C29522C29622C29722F9
:1002FD00EFB40800503690030AF828287302032241
:10030D0002032502032802032B02032E02033102EE
:10031D000334020337D29022D29122D29222D29369
:0D032D0022D29422D29522D29622D297227B
:10033A00EFB408005036900347F828287302035F89
:10034A0002036202036502036802036B02036E0280
:10035A000371020374B29022B29122B29222B29332
:0D036A0022B29422B29522B29622B29722BE
:10040F007FBFDFEFF7FBFDFE3F065B4F666D7D079E
:0A041F007F6F777C395E79714080B1
:0304410001370080
:08046300C2A7C2A67580FF22AA
:0100090022D4
:0404760075370122B3
:04047A00E4F537224C
:0303EF00F8E6FD30
:1003F200EF90040F93F580D2A7C2A7ED9004179354
:0D040200F580D2A6C2A67F017E000203A4F1
:10042900EF90040F93F580D2A7C2A78D80D2A6C200
:08043900A67F017E000203A46E
:0601AE008D13AB07AA0649
:1001B400E4F514E513600FE514C3940850047F01BB
:1001C40080137F00800FD3EB9400EA940040047FF7
:1001D4000180027F00EF60257C007D0AAF03AE0240
:1001E40012002074152514F8A6057C007D0AAF03BF
:1001F400AE02120020AA06AB07051480B61514E55A
:1002040014C39408500D74152514AF141203EF157C
:030214001480EC67
:0102170022C4
:10013A008E088F09C3E508648094804005E4FD02B7
:02014A0001AE04
:10014C00C3E49509F509E49508F508E4F50AD3E547
:10015C00099400E508648094804025AE08AF097CC2
:10016C00007D0A120075740B250AF8A605AE08AFBF
:10017C00097C007D0A1200758E088F09050A80CE55
:10018C00900427E493FDAF0A120429150AE50AC36B
:10019C009408500D740B250AAF0A1203EF150A8050
:0101AC00EC66
:0101AD00222F
:10021800E4F51DED600FE51DC3940850047C0180D2
:10022800137C00800FD3EF9400EE940040047C010F
:1002380080027C00EC601DEF540FFC741E251DF835
:10024800A604EEC4F854F0C868FEEFC4540F48FF83
:10025800051D80BF151DE51DC394085010741E258B
:0D0268001DF8E6FDAF1D1203F2151D80E923
:010275002266
:090000008F308E2F8D2E8C2D22E5
:0B0444000429000000000302FF037702
:1003A4008F828E83E4F52CF52BF52AF529D28CAFB8
:1003B40082AE83E4FCFDAB2CAA2BA92AA829C31284
:0703C40000AB40EBC28C22EC
:100377008E318F32E4F52CF52BF52AF529D28CAE88
:1003870031AF327C007D0A12000EE4FDAB2CAA2BA4
:0D039700A92AA829C31200AB40E5C28C22A0
:0E045500438902758CA6758AA6D2A9D2AF2261
:03000B000203CB22
:1003CB00C0E0C0D0758CA6758AA6E52C2401F52C4F
:1003DB00E4352BF52BE4352AF52AE43529F529D01C
:0403EB00D0D0E0325C
:03047E00C2A322F4
:03048100D2A322E1
:06044F000133010134013C
:10027600EF600375330175B0FFE5336032E5B0F426
:1002860060357F017E00120377E5B0F46029E4F55E
:1002960033AFB0EF2409601424FC600D24FE600621
:1002A6001470147F01227F02227F03227F0422E53D
:0902B600B0B4FF037533017F00B1
:0102BF00221C
:1000BC00E4F538EF6003753401E534606375B0F036
:1000CC00E5B064F060657F057E00120377E5B064EF
:1000DC00F06058E4F534AFB0EF2490601B24C0609E
:1000EC001224E0600924F07012753810800D7538F8
:1000FC00118008753812800375381375B00FAFB0C6
:10010C00EF24F9601324FC600B24FE600314801BA5
:10011C007404800674088002740C2538F538800B42
:0D012C0075B0F0E5B0B4F003753401AF38E4
:0101390022A3
:07046B008F358D367F002262
:10000E00EF8DF0A4A8F0CF8CF0A428CE8DF0A42E06
:02001E00FE22C0
:10002000BC000BBE0029EF8DF084FFADF022E4CCC4
:10003000F875F008EF2FFFEE33FEEC33FCEE9DEC8D
:10004000984005FCEE9DFE0FD5F0E9E4CEFD22EDD3
:10005000F8F5F0EE8420D21CFEADF075F008EF2F1D
:10006000FFED33FD4007985006D5F0F222C398FD0E
:050070000FD5F0EA22AB
:10007500C2D5EC30E709B2D5E4C39DFDE49CFCEEA6
:1000850030E715B2D5E4C39FFFE49EFE120020C3FE
:10009500E49DFDE49CFC800312002030D507C3E4F9
:0600A5009FFFE49EFE2215
:1000AB00EB9FF5F0EA9E42F0E99D42F0E89C45F0AB
:0100BB002222
:00000001FF
